:100000000C942A000C9447000C9447000C94470071
:100010000C9447000C9447000C9447000C94470044
:100020000C9449000C94E8000C9447000C94470091
:100030000C9447000C9447000C9447000C94470024
:100040000C9447000C9447000C9447000C94470014
:100050000C94470011241FBECFE5D4E0DEBFCDBF16
:1000600010E0A0E6B0E0ECE9F2E002C005900D92ED
:10007000AE37B107D9F720E0AEE7B0E001C01D927E
:10008000A438B207E1F70E9474000C944C010C9460
:1000900000001F920F920FB60F9211245F936F937F
:1000A0007F938F939F93AF93BF93809160009091C4
:1000B00061009DBD8CBD809182009091830001966E
:1000C00060E177E20E942401909383008093820094
:1000D000BF91AF919F918F917F916F915F910F90A1
:1000E0000FBE0F901F9018958FEF81BB84BB85BB0F
:1000F00081E083BF83E08EBD89B7856089BF789436
:100100001092830010928200FFCF8330910599F402
:1001100080918200909183006AE070E00E94240147
:10012000FC01EE0FFF1FE659FF4F808182BB8091DB
:10013000680085BB089582309105C1F480918200EA
:10014000909183002AE030E0B9010E942401CB01A4
:10015000B9010E942401FC01EE0FFF1FE659FF4F79
:10016000808182BB8091660085BB08950197C1F4B0
:10017000809182009091830064E670E00E942401E7
:10018000CB016AE070E00E942401FC01EE0FFF1F2A
:10019000E659FF4F808182BB8091640085BB089542
:1001A000809182009091830068EE73E00E942401A8
:1001B000CB016AE070E00E942401FC01EE0FFF1FFA
:1001C000E659FF4F808182BB8091620085BB089514
:1001D0001F920F920FB60F9211242F933F934F93BC
:1001E0005F936F937F938F939F93AF93BF93EF939F
:1001F000FF9380917E0082BF80918000909181006A
:100200000E9485008091800090918100019683700A
:100210009078992324F401978C6F9F6F01969093A7
:10022000810080938000FF91EF91BF91AF919F91EA
:100230008F917F916F915F914F913F912F910F908F
:100240000FBE0F901F90189597FB072E16F4009481
:1002500007D077FD09D00E94380107FC05D03EF495
:10026000909581959F4F0895709561957F4F089562
:10027000AA1BBB1B51E107C0AA1FBB1FA617B707CC
:1002800010F0A61BB70B881F991F5A95A9F78095E8
:0C0290009095BC01CD010895F894FFCFBB
:10029C00F6C2FE00FD00FB00F700BF008600DB008D
:0E02AC00CF00E600ED00FD008700FF00EF0030
:00000001FF
