S00B00007372632E73726563D1
S11300000C942A000C9434000C9434000C943400A6
S11300100C9434000C9434000C9434000C9434008C
S11300200C9434000C9434000C9434000C9434007C
S11300300C9434000C9434000C9434000C9434006C
S11300400C9434000C9434000C9434000C9434005C
S11300500C94340011241FBECFE5D4E0DEBFCDBF25
S11300600E9436000C944E000C94000081E08ABB80
S113007081E08BBB2FE986E891E0215080409040DD
S1130080E1F700C000001BBA2FE986E891E0215097
S113009080409040E1F700C00000EACFF894FFCF21
S9030000FC
