S00D000070617274322E737265632E
S11300000C942A000C9447000C9447000C9447006D
S11300100C9447000C9447000C9447000C94470040
S11300200C9477010C9447000C9447000C944700FF
S11300300C9447000C9447000C9447000C94470020
S11300400C9447000C9447000C9447000C94470010
S11300500C94470011241FBECFE5D4E0DEBFCDBF12
S113006010E0A0E6B0E0E8E6F3E002C005900D92EF
S1130070A436B107D9F720E0A4E6B0E001C01D9290
S1130080AA36B207E1F70E94EE000C94B2010C9478
S1130090000085BB82B38F7D82BB82B38F7B82BB22
S11300A082B3806882BB000082B38F7782BB89EF02
S11300B090E00197F1F700C00000089583ED90E30C
S11300C00197F1F700C000008FEF84BB81BB88E388
S11300D090E00E9449008EE090E00E94490081E097
S11300E090E00E94490080E890E00E944900089551
S11300F081E090E00E94490080E890E00E9449007D
S1130100089585BB82B3806282BB82B38F7B82BB3E
S113011082B3806882BB000082B38F7782BB89EF91
S113012090E00197F1F700C000000895CF93DF93AA
S1130130EC0103C021960E94810088818111FACFCD
S1130140DF91CF9108950F931F93CF93DF938C0189
S11301509C01ADECBCEC0E94A301EC01D695C795C3
S1130160D695C795D695C7958C2F805D0E94810042
S1130170CE01880F991FCC0FDD1FCC0FDD1FCC0FD4
S1130180DD1FC80FD91FC8018C1B9D0B805D0E9409
S11301908100DF91CF911F910F91089580916800A4
S11301A0909169000E94A30082E690E00E9496006C
S11301B080916600909167000E94A30082E690E01F
S11301C00E94960080916400909165000E94A300B3
S11301D008950E9478000E94CE0008958FEF81BB9D
S11301E084BB15BA83E08EBD89B7846089BF7894D7
S11301F080916000909161009DBD8CBD109265005E
S113020010926400109267001092660010926900C8
S1130210109268000E945E000E94E900FFCF2091C6
S1130220640030916500820F931F90936500809362
S1130230640008958091640090916500CC971CF04F
S113024081E090E008958FEF9FEF0895209166007C
S113025030916700820F931F90936700809366002C
S113026008958091660090916700CC971CF081E01E
S113027090E008958FEF9FEF0895209168003091EA
S11302806900820F931F909369008093680008951A
S1130290809168009091690048971CF081E090E09B
S11302A008958FEF9FEF089581E090E00E940F0181
S11302B00E941A01019741F481E090E00E94260116
S11302C010926500109264000E943101019731F48C
S11302D00E943D0110926700109266000E9448013E
S11302E0019721F4109269001092680008951F92FA
S11302F00F920FB60F9211242F933F934F935F9356
S11303006F937F938F939F93AF93BF93EF93FF93D9
S11303100E9454010E94E900809160009091610064
S11303209DBD8CBDFF91EF91BF91AF919F918F9136
S11303307F916F915F914F913F912F910F900FBEDD
S11303400F901F901895A29FB001B39FC001A39F67
S1130350700D811D1124911DB29F700D811D1124FA
S10B0360911D0895F894FFCFEC
S107036895CE3A00F0
S9030000FC
