S00C0000636F64652E737265637D
S11300000C942A000C9447000C9447000C9447006D
S11300100C9447000C9447000C9447000C94470040
S11300200C9465000C9447000C9447000C94470012
S11300300C9447000C9447000C9447000C94470020
S11300400C9447000C9447000C9447000C94470010
S11300500C94470011241FBECFE5D4E0DEBFCDBF12
S113006010E0A0E6B0E0ECE3F1E002C005900D92F0
S1130070AA36B107D9F720E0AAE6B0E001C01D9284
S1130080AC36B207E1F70E9449000C949C000C9432
S113009000008FEF8ABB14BA82E08EBD89B78560F9
S11300A089BF7894FFCF80916A0090916B0001968C
S11300B083709078992324F401978C6F9F6F019635
S11300C090936B0080936A0008951F920F920FB66D
S11300D00F9211242F933F934F935F936F937F93CA
S11300E08F939F93AF93BF93EF93FF93809160009F
S11300F0909161009DBD8CBD83B381110CC00E94A1
S11301005300E0916A00F0916B00EE0FFF1FEE596F
S1130110FF4F80818BBBFF91EF91BF91AF919F9176
S11301208F917F916F915F914F913F912F910F909C
S10F01300FBE0F901F901895F894FFCF9D
S10D013C170208000200040001008D
S9030000FC
