:100000000C942A000C9447000C9447000C94470071
:100010000C9447000C9447000C9447000C94470044
:100020000C9447000C9447000C9447000C94470034
:100030000C9447000C9447000C9447000C94470024
:100040000C9447000C9447000C9447000C94470014
:100050000C94470011241FBECFE5D4E0DEBFCDBF16
:1000600010E0A0E6B0E0E2EFF0E002C005900D92F3
:10007000A836B107D9F720E0A8E6B0E001C01D928C
:10008000AA36B207E1F70E945B000C9477000C944B
:1000900000008091680090916900019683709078CB
:1000A000992324F401978C6F9F6F019690936900B8
:1000B0008093680008958FEF8ABB14BA83B38111CF
:1000C0000CC00E944900E0916800F0916900EE0FB9
:1000D000FF1FE05AFF4F80818BBB2FE986E891E03C
:1000E000215080409040E1F700C00000E7CFF89435
:0200F000FFCF40
:0800F2000800020004000100F7
:00000001FF
