:100000000C942A000C943F000C943F000C943F0089
:100010000C943F000C943F000C943F000C943F0064
:100020000C943F000C943F000C943F000C943F0054
:100030000C943F000C943F000C943F000C943F0044
:100040000C943F000C943F000C943F000C943F0034
:100050000C943F0011241FBECFE5D4E0DEBFCDBF1E
:1000600010E0A0E6B0E0E6E3F1E002C005900D92FA
:10007000AC36B107D9F70E9492000C9499000C9409
:10008000000085BB82B38F7D82BB82B38F7B82BB36
:1000900082B3806882BB000082B38F7782BB89EF16
:1000A00090E00197F1F700C00000089583ED90E320
:1000B0000197F1F700C000008FEF84BB81BB88E39C
:1000C00090E00E9441008EE090E00E94410081E0BB
:1000D00090E00E94410080E890E00E944100089575
:1000E00085BB82B3806282BB82B38F7B82BB82B3CB
:1000F000806882BB000082B38F7782BB89EF90E07B
:100100000197F1F700C000000895CF93DF93EC0151
:1001100003C021960E94700088818111FACFDF917F
:10012000CF9108950E94560080E690E00E948500DD
:06013000FFCFF894FFCFA1
:0C01360048656C6C6F20776F726C640081
:00000001FF
