:100000000C942A000C9434000C9434000C943400AA
:100010000C9434000C9434000C9434000C94340090
:100020000C9434000C9434000C9434000C94340080
:100030000C9434000C9434000C9434000C94340070
:100040000C9434000C9434000C9434000C94340060
:100050000C94340011241FBECFE5D4E0DEBFCDBF29
:100060000E947A000C9480000C94000085BB82B33F
:100070008F7D82BB82B38F7B82BB82B3806882BB61
:10008000000082B38F7782BB89EF90E00197F1F790
:1000900000C00000089583ED90E30197F1F700C0E0
:1000A00000008FEF84BB81BB88E390E00E943600A4
:1000B0008EE090E00E94360081E090E00E943600E1
:1000C00080E890E00E943600089585BB82B380628C
:1000D00082BB82B38F7B82BB82B3806882BB00000D
:1000E00082B38F7782BB89EF90E00197F1F700C070
:1000F000000008950E944B0088E60E946500FACF38
:04010000F894FFCFA1
:00000001FF
