:100000000C942A000C9434000C9434000C943400AA
:100010000C9434000C9434000C9434000C94340090
:100020000C9434000C9434000C9434000C94340080
:100030000C9434000C9434000C9434000C94340070
:100040000C9434000C9434000C9434000C94340060
:100050000C94340011241FBECFE5D4E0DEBFCDBF29
:100060000E9436000C9452000C9400001ABA8FEFD4
:1000700087BB89B38130E9F78FEF88BB2FE986E82A
:1000800091E0215080409040E1F700C0000018BA94
:100090002FE986E891E0215080409040E1F700C0D0
:0800A0000000E7CFF894FFCF48
:00000001FF
