:100000000C942A000C9434000C9434000C943400AA
:100010000C9434000C9434000C9434000C94340090
:100020000C9434000C9434000C9434000C94340080
:100030000C9434000C9434000C9434000C94340070
:100040000C9434000C9434000C9434000C94340060
:100050000C94340011241FBECFE5D4E0DEBFCDBF29
:100060000E9436000C9496010C9400001ABA8FEF8F
:1000700087BBC12CD12C76016894F6F861E007C0EB
:100080000F2EC12CD12CE12CFFE3FF2EF02D18BA3E
:1000900089B38130E1F768BB2FE986E891E0215010
:1000A00080409040E1F700C0000070E080E090E008
:1000B0000E949D00A70196010E9401010E946C0010
:1000C00088B3823029F4C12CD12C76016894F6F8DB
:1000D00088B38034E1F6D4CF0E94E00088F09F57C7
:1000E00098F0B92F9927B751B0F0E1F0660F771F5C
:1000F000881F991F1AF0BA95C9F714C0B13091F052
:100100000E94FA00B1E008950C94FA00672F782F4E
:100110008827B85F39F0B93FCCF386957795679516
:10012000B395D9F73EF490958095709561957F4F82
:100130008F4F9F4F0895E89409C097FB3EF4909528
:100140008095709561957F4F8F4F9F4F9923A9F0B0
:10015000F92F96E9BB279395F6958795779567953F
:10016000B795F111F8CFFAF4BB0F11F460FF1BC083
:100170006F5F7F4F8F4F9F4F16C0882311F096E916
:1001800011C0772321F09EE8872F762F05C06623C4
:1001900071F096E8862F70E060E02AF09A95660F7D
:1001A000771F881FDAF7880F9695879597F9089536
:1001B00057FD9058440F551F59F05F3F71F0479518
:1001C000880F97FB991F61F09F3F79F087950895FD
:1001D000121613061406551FF2CF4695F1DF08C01C
:1001E000161617061806991FF1CF86957105610539
:1001F00008940895E894BB2766277727CB0197F9E1
:1002000008950E9414010C9485010E94770138F032
:100210000E947E0120F0952311F00C946E010C9445
:10022000740111240C94FB000E94D80070F3959F78
:10023000C1F3950F50E0551F629FF001729FBB27DD
:10024000F00DB11D639FAA27F00DB11DAA1F649F79
:100250006627B00DA11D661F829F2227B00DA11D2C
:10026000621F739FB00DA11D621F839FA00D611DB2
:10027000221F749F3327A00D611D231F849F600DD3
:10028000211D822F762F6A2F11249F5750409AF0FC
:10029000F1F088234AF0EE0FFF1FBB1F661F771F88
:1002A000881F91505040A9F79E3F510580F00C9453
:1002B0006E010C94FB005F3FE4F3983ED4F3869507
:1002C00077956795B795F795E7959F5FC1F7FE2BF3
:1002D000880F911D9695879597F9089597F99F67CF
:1002E00080E870E060E008959FEF80EC08950024BE
:1002F0000A941616170618060906089500240A948B
:1003000012161306140605060895092E0394000C10
:1003100011F4882352F0BB0F40F4BF2B11F460FF9F
:1003200004C06F5F7F4F8F4F9F4F0895F894FFCFAA
:00000001FF
