:100000000C942A000C9447000C9447000C94470071
:100010000C9447000C9447000C9447000C94470044
:100020000C946E000C9447000C9447000C9447000D
:100030000C9447000C9447000C9447000C94470024
:100040000C9447000C9447000C9447000C94470014
:100050000C94470011241FBECFE5D4E0DEBFCDBF16
:1000600010E0A0E6B0E0EEE9F1E002C005900D92EC
:10007000A637B107D9F720E0A6E7B0E001C01D928E
:10008000A837B207E1F70E9449000C94CD000C9408
:1000900000008FEF81BB84BB15BA83E08EBD89B7AA
:1000A000846089BF789480916000909161009DBDCB
:1000B0008CBD1092770010927600FFCF8091760071
:1000C000909177006AE070E00E94A500FC01EE0FBD
:1000D000FF1FEE59FF4F808182BB08951F920F9240
:1000E0000FB60F9211242F933F934F935F936F930B
:1000F0007F938F939F93AF93BF93EF93FF930E9450
:100100005E0080916000909161009DBD8CBD8091EA
:1001100076009091770001966AE070E00E94A50059
:100120009093770080937600FF91EF91BF91AF910C
:100130009F918F917F916F915F914F913F912F91FF
:100140000F900FBE0F901F90189597FB072E16F477
:10015000009407D077FD09D00E94B90007FC05D0B4
:100160003EF4909581959F4F0895709561957F4FCE
:100170000895AA1BBB1B51E107C0AA1FBB1FA617EE
:10018000B70710F0A61BB70B881F991F5A95A9F740
:0E01900080959095BC01CD010895F894FFCFA5
:10019E00F6C2BF008600DB00CF00E600ED00FD00DA
:0601AE008700FF00EF00D6
:00000001FF
