S00C0000436F64652E737265639D
S11300000C942A000C943F000C943F000C943F0085
S11300100C943F000C943F000C943F000C943F0060
S11300200C9462010C943F000C943F000C943F002C
S11300300C943F000C943F000C943F000C943F0040
S11300400C943F000C943F000C943F000C943F0030
S11300500C943F0011241FBECFE5D4E0DEBFCDBF1A
S113006010E0A0E6B0E0E4EEF8E002C005900D92E6
S1130070A237B107D9F70E941F010C9470040C94A5
S1130080000085BB82B38F7D82BB82B38F7B82BB32
S113009082B3806882BB000082B38F7782BB89EF12
S11300A090E00197F1F700C00000089583ED90E31C
S11300B00197F1F700C000008FEF84BB81BB88E398
S11300C090E00E9441008EE090E00E94410081E0B7
S11300D090E00E94410080E890E00E944100089571
S11300E081E090E00E94410080E890E00E9441009D
S11300F00895823058F420E4829FC001112480685E
S1130100603108F4860F90E00E944100089585BB99
S113011082B3806282BB82B38F7B82BB82B38068EE
S113012082BB000082B38F7782BB89EF90E0019796
S1130130F1F700C000000895CF93DF93EC0103C0F2
S113014021960E94870088818111FACFDF91CF9197
S113015008958FE087BB8FEF88BB089580E788BB45
S11301608DEE92E00197F1F700C0000086B380772E
S1130170803711F481E0089580E0089580E788BB1A
S11301808DEE92E00197F1F700C0000086B380770E
S1130190803761F087E893E10197F1F700C0000030
S11301A086B38077803721F081E0089580E0089558
S11301B080E00895CF930E94BE00811135C08FEF77
S11301C03CC0292F30E041E050E0092E02C0440F2A
S11301D0551F0A94E2F7409548BBEDEEF2E03197E3
S11301E0F1F700C00000B49908C0F901EE0FFF1F39
S11301F0E20FF31FE05AFF4FC081B59908C0F9011F
S1130200EE0FFF1FE20FF31FEF59FF4FC081B699A6
S113021009C0F901EE0FFF1F2E0F3F1FF901EE5920
S1130220FF4FC0819F5F02C0C0E090E0943048F26D
S11302300E94AE008823E1F38C2FCF910895CF93D1
S1130240DF93CDB7DEB72A970FB6F894DEBF0FBEA3
S1130250CDBF8FEF81BB84BB15BA80E190E00E94D3
S1130260560060E080E00E9479000E94A9000E948C
S1130270DA00182F8F3FD9F30E947000DE01119627
S1130280FD0101900020E9F73197EA1BFB0B3A9737
S113029088F41F921F93BF93AF932DE630E03F93F2
S11302A02F93BF93AF930E9486010FB6F894DEBFDD
S11302B00FBECDBFCE0101960E949C00D8CF0E94F4
S11302C0700008951F920F920FB60F9211242F936E
S11302D03F934F935F936F937F938F939F93AF93CA
S11302E0BF93EF93FF930E945F01FF91EF91BF9142
S11302F0AF919F918F917F916F915F914F913F91BA
S11303002F910F900FBE0F901F901895AEE0B0E0A4
S1130310ECE8F1E00C9447040D891E8986E08C8397
S11303201A8309838FEF9FE79E838D83AE01475E17
S11303305F4F6F89788DCE0101960E94A801EF81ED
S1130340F885E00FF11F10822E96E4E00C9463040C
S1130350ABE0B0E0EEEAF1E00C9439046C017B010F
S11303608A01FC0117821682838181FFCCC1CE01F0
S113037001963C01F6019381F70193FD859193FF6A
S113038081917F01882309F4BAC1853239F493FD40
S1130390859193FF81917F01853229F4B60190E024
S11303A00E949F03E7CF912C212C312CFFE1F31500
S11303B0D8F08B3279F038F4803279F08332A1F4BA
S11303C0232D20611DC08D3261F0803369F4232D0B
S11303D0216016C0832D8260382EE32DE4603E2E0A
S11303E02AC0F32DF8601DC037FC2DC020ED280F66
S11303F02A3040F08E32B9F436FC81C1232D2064BA
S1130400322E19C036FE06C08AE0989E200D1124B3
S1130410922E11C0EAE02E9E200D1124222EF32DDF
S1130420F0623F2E08C08C3621F4832D8068382E6C
S113043002C0883641F4F70193FD859193FF8191C1
S11304407F018111B3CF982F9F7D9554933028F469
S11304500C5F1F4F9FE399830DC0833631F08337C0
S113046071F0833509F059C021C0F8018081898376
S11304700E5F1F4F88248394912C530113C02801CD
S1130480F2E04F0E511CF801A080B18036FE03C08B
S1130490692D70E002C06FEF7FEFC5010E949403E5
S11304A04C018201F32DFF773F2E16C0280122E074
S11304B0420E511CF801A080B18036FE03C0692DA4
S11304C070E002C06FEF7FEFC5010E9489034C0109
S11304D0F32DF0683F2E820133FC1BC0822D90E087
S11304E088169906B0F4B60180E290E00E949F035A
S11304F02A94F4CFF50137FC859137FE81915F0191
S1130500B60190E00E949F0321102A9421E0821AF0
S113051091088114910471F7E8C0843611F089368A
S113052041F5F80137FE07C06081718182819381B2
S11305300C5F1F4F08C060817181072E000C880B6F
S1130540990B0E5F1F4FF32DFF763F2E97FF09C0C7
S113055090958095709561957F4F8F4F9F4FF06870
S11305603F2E2AE030E0A3010E94DB03882E861888
S113057045C0853731F4232D2F7EB22E2AE030E09A
S113058025C0932D997FB92E8F36C1F018F4883584
S113059079F0B5C0803719F0883721F0B0C0E92F61
S11305A0E061BE2EB4FE0DC0FB2DF460BF2E09C069
S11305B034FE0AC0292F2660B22E06C028E030E09F
S11305C005C020E130E002C020E132E0F801B7FECE
S11305D007C060817181828193810C5F1F4F06C0C7
S11305E06081718180E090E00E5F1F4FA3010E9443
S11305F0DB03882E8618FB2DFF773F2E36FE0DC0B9
S1130600232D2E7FA22E891458F434FE0BC032FC05
S113061009C0832D8E7EA82E05C0B82CA32C03C040
S1130620B82C01C0B92CA4FE0FC0FE01E80DF11DC9
S11306308081803321F49A2D997EA92E09C0A2FECF
S113064006C0B394B39404C08A2D867809F0B39499
S1130650A3FC11C0A0FE06C0B21488F4280C922C8E
S11306609B180EC0B21460F4B60180E290E00E94C0
S11306709F03B394F7CFB21418F42B1802C0982C2C
S1130680212CA4FE10C0B60180E390E00E949F03D9
S1130690A2FE17C0A1FC03C088E790E002C088E571
S11306A090E0B6010CC08A2D867859F0A1FE02C0F4
S11306B08BE201C080E2A7FC8DE2B60190E00E94CB
S11306C09F03891438F4B60180E390E00E949F03ED
S11306D09A94F7CF8A94F301E80DF11D8081B60155
S11306E090E00E949F038110F5CF222009F442CEAE
S11306F0B60180E290E00E949F032A94F6CFF601AF
S11307008681978102C08FEF9FEF2B96E2E10C94D4
S11307105504FC010590615070400110D8F7809594
S113072090958E0F9F1F0895FC01615070400190B9
S11307300110D8F7809590958E0F9F1F08950F9301
S11307401F93CF93DF93FB01238121FD03C08FEF20
S11307509FEF2CC022FF16C046815781248135812A
S11307604217530744F4A081B1819D012F5F3F4F8D
S1130770318320838C93268137812F5F3F4F3783CA
S1130780268314C08B01EC01FB010084F185E02D6C
S11307900995892BE1F6D80116968D919C911797AE
S11307A0019617969C938E931697CE01DF91CF9165
S11307B01F910F910895FA01AA27283051F1203191
S11307C081F1E8946F936E7F6E5F7F4F8F4F9F4FE1
S11307D0AF4FB1E03ED0B4E03CD0670F781F891F23
S11307E09A1FA11D680F791F8A1F911DA11D6A0FF1
S11307F0711D811D911DA11D20D009F468943F91A4
S11308002AE0269F11243019305D3193DEF6CF01A2
S11308100895462F4770405D4193B3E00FD0C9F768
S1130820F6CF462F4F70405D4A3318F0495D31FDD5
S11308304052419302D0A9F7EACFB4E0A695979528
S1130840879577956795BA95C9F7009761057105FE
S113085008959B01AC010A2E069457954795379548
S11308602795BA95C9F7620F731F841F951FA01DA2
S113087008952F923F924F925F926F927F928F9240
S11308809F92AF92BF92CF92DF92EF92FF920F931B
S11308901F93CF93DF93CDB7DEB7CA1BDB0B0FB625
S11308A0F894DEBF0FBECDBF09942A8839884888E2
S11308B05F846E847D848C849B84AA84B984C88478
S11308C0DF80EE80FD800C811B81AA81B981CE0F6F
S11308D0D11D0FB6F894DEBF0FBECDBFED01089554
S10708E0F894FFCFB6
S11308E40A000B0708090405060102030025732501
S10508F464009A
S9030000FC
