S00C0000636F64652E737265637D
S11300000C942A000C9449000C9447000C9447006B
S11300100C9447000C9447000C9447000C94470040
S11300200C948F000C9447000C9447000C944700E8
S11300300C9447000C9447000C9447000C94470020
S11300400C9447000C9447000C9447000C94470010
S11300500C94470011241FBECFE5D4E0DEBFCDBF12
S113006010E0A0E6B0E0EAE8F1E002C005900D92ED
S1130070AA36B107D9F720E0AAE6B0E001C01D9284
S1130080AE36B207E1F70E9462000C94C3000C94F0
S113009000001F920F920FB60F9211248F939F931B
S11300A080916C0090916D00919581959109909348
S11300B06D0080936C009F918F910F900FBE0F90F5
S11300C01F90189581E090E090936D0080936C00F0
S11300D08FEF8ABB14BA82E08EBD89B7856089BF71
S11300E08BB780648BBF85B7826085BF7894FFCF60
S11300F020916A0030916B0080916C0090916D00AA
S1130100820F931F83709078992324F401978C6F46
S11301109F6F019690936B0080936A0008951F92DD
S11301200F920FB60F9211242F933F934F935F9327
S11301306F937F938F939F93AF93BF93EF93FF93AB
S113014080916000909161009DBD8CBD0E947800FB
S1130150E0916A00F0916B00EE0FFF1FEE59FF4F24
S113016080818BBBFF91EF91BF91AF919F918F9154
S11301707F916F915F914F913F912F910F900FBE9F
S10D01800F901F901895F894FFCF1C
S10D018A170208000200040001003F
S9030000FC
